{
    "contractName": "TestNFT",
    "abi": [
        {
            "inputs": [],
            "stateMutability": "nonpayable",
            "type": "constructor"
        },
        {
            "anonymous": false,
            "inputs": [
                {
                    "indexed": true,
                    "internalType": "address",
                    "name": "owner",
                    "type": "address"
                },
                {
                    "indexed": true,
                    "internalType": "address",
                    "name": "approved",
                    "type": "address"
                },
                {
                    "indexed": true,
                    "internalType": "uint256",
                    "name": "tokenId",
                    "type": "uint256"
                }
            ],
            "name": "Approval",
            "type": "event"
        },
        {
            "anonymous": false,
            "inputs": [
                {
                    "indexed": true,
                    "internalType": "address",
                    "name": "owner",
                    "type": "address"
                },
                {
                    "indexed": true,
                    "internalType": "address",
                    "name": "operator",
                    "type": "address"
                },
                {
                    "indexed": false,
                    "internalType": "bool",
                    "name": "approved",
                    "type": "bool"
                }
            ],
            "name": "ApprovalForAll",
            "type": "event"
        },
        {
            "anonymous": false,
            "inputs": [
                {
                    "indexed": true,
                    "internalType": "address",
                    "name": "previousOwner",
                    "type": "address"
                },
                {
                    "indexed": true,
                    "internalType": "address",
                    "name": "newOwner",
                    "type": "address"
                }
            ],
            "name": "OwnershipTransferred",
            "type": "event"
        },
        {
            "anonymous": false,
            "inputs": [
                {
                    "indexed": false,
                    "internalType": "address",
                    "name": "account",
                    "type": "address"
                }
            ],
            "name": "Paused",
            "type": "event"
        },
        {
            "anonymous": false,
            "inputs": [
                {
                    "indexed": true,
                    "internalType": "address",
                    "name": "from",
                    "type": "address"
                },
                {
                    "indexed": true,
                    "internalType": "address",
                    "name": "to",
                    "type": "address"
                },
                {
                    "indexed": true,
                    "internalType": "uint256",
                    "name": "tokenId",
                    "type": "uint256"
                }
            ],
            "name": "Transfer",
            "type": "event"
        },
        {
            "anonymous": false,
            "inputs": [
                {
                    "indexed": false,
                    "internalType": "address",
                    "name": "account",
                    "type": "address"
                }
            ],
            "name": "Unpaused",
            "type": "event"
        },
        {
            "inputs": [
                {
                    "internalType": "address",
                    "name": "to",
                    "type": "address"
                },
                {
                    "internalType": "uint256",
                    "name": "tokenId",
                    "type": "uint256"
                }
            ],
            "name": "approve",
            "outputs": [],
            "stateMutability": "nonpayable",
            "type": "function"
        },
        {
            "inputs": [
                {
                    "internalType": "address",
                    "name": "owner",
                    "type": "address"
                }
            ],
            "name": "balanceOf",
            "outputs": [
                {
                    "internalType": "uint256",
                    "name": "",
                    "type": "uint256"
                }
            ],
            "stateMutability": "view",
            "type": "function"
        },
        {
            "inputs": [
                {
                    "internalType": "uint256",
                    "name": "tokenId",
                    "type": "uint256"
                }
            ],
            "name": "burn",
            "outputs": [],
            "stateMutability": "nonpayable",
            "type": "function"
        },
        {
            "inputs": [
                {
                    "internalType": "uint256",
                    "name": "tokenId",
                    "type": "uint256"
                }
            ],
            "name": "getApproved",
            "outputs": [
                {
                    "internalType": "address",
                    "name": "",
                    "type": "address"
                }
            ],
            "stateMutability": "view",
            "type": "function"
        },
        {
            "inputs": [
                {
                    "internalType": "address",
                    "name": "owner",
                    "type": "address"
                },
                {
                    "internalType": "address",
                    "name": "operator",
                    "type": "address"
                }
            ],
            "name": "isApprovedForAll",
            "outputs": [
                {
                    "internalType": "bool",
                    "name": "",
                    "type": "bool"
                }
            ],
            "stateMutability": "view",
            "type": "function"
        },
        {
            "inputs": [],
            "name": "name",
            "outputs": [
                {
                    "internalType": "string",
                    "name": "",
                    "type": "string"
                }
            ],
            "stateMutability": "view",
            "type": "function"
        },
        {
            "inputs": [],
            "name": "owner",
            "outputs": [
                {
                    "internalType": "address",
                    "name": "",
                    "type": "address"
                }
            ],
            "stateMutability": "view",
            "type": "function"
        },
        {
            "inputs": [
                {
                    "internalType": "uint256",
                    "name": "tokenId",
                    "type": "uint256"
                }
            ],
            "name": "ownerOf",
            "outputs": [
                {
                    "internalType": "address",
                    "name": "",
                    "type": "address"
                }
            ],
            "stateMutability": "view",
            "type": "function"
        },
        {
            "inputs": [],
            "name": "pause",
            "outputs": [],
            "stateMutability": "nonpayable",
            "type": "function"
        },
        {
            "inputs": [],
            "name": "paused",
            "outputs": [
                {
                    "internalType": "bool",
                    "name": "",
                    "type": "bool"
                }
            ],
            "stateMutability": "view",
            "type": "function"
        },
        {
            "inputs": [],
            "name": "renounceOwnership",
            "outputs": [],
            "stateMutability": "nonpayable",
            "type": "function"
        },
        {
            "inputs": [
                {
                    "internalType": "address",
                    "name": "to",
                    "type": "address"
                },
                {
                    "internalType": "string",
                    "name": "uri",
                    "type": "string"
                }
            ],
            "name": "safeMint",
            "outputs": [],
            "stateMutability": "nonpayable",
            "type": "function"
        },
        {
            "inputs": [
                {
                    "internalType": "address",
                    "name": "from",
                    "type": "address"
                },
                {
                    "internalType": "address",
                    "name": "to",
                    "type": "address"
                },
                {
                    "internalType": "uint256",
                    "name": "tokenId",
                    "type": "uint256"
                }
            ],
            "name": "safeTransferFrom",
            "outputs": [],
            "stateMutability": "nonpayable",
            "type": "function"
        },
        {
            "inputs": [
                {
                    "internalType": "address",
                    "name": "from",
                    "type": "address"
                },
                {
                    "internalType": "address",
                    "name": "to",
                    "type": "address"
                },
                {
                    "internalType": "uint256",
                    "name": "tokenId",
                    "type": "uint256"
                },
                {
                    "internalType": "bytes",
                    "name": "data",
                    "type": "bytes"
                }
            ],
            "name": "safeTransferFrom",
            "outputs": [],
            "stateMutability": "nonpayable",
            "type": "function"
        },
        {
            "inputs": [
                {
                    "internalType": "address",
                    "name": "operator",
                    "type": "address"
                },
                {
                    "internalType": "bool",
                    "name": "approved",
                    "type": "bool"
                }
            ],
            "name": "setApprovalForAll",
            "outputs": [],
            "stateMutability": "nonpayable",
            "type": "function"
        },
        {
            "inputs": [
                {
                    "internalType": "bytes4",
                    "name": "interfaceId",
                    "type": "bytes4"
                }
            ],
            "name": "supportsInterface",
            "outputs": [
                {
                    "internalType": "bool",
                    "name": "",
                    "type": "bool"
                }
            ],
            "stateMutability": "view",
            "type": "function"
        },
        {
            "inputs": [],
            "name": "symbol",
            "outputs": [
                {
                    "internalType": "string",
                    "name": "",
                    "type": "string"
                }
            ],
            "stateMutability": "view",
            "type": "function"
        },
        {
            "inputs": [
                {
                    "internalType": "uint256",
                    "name": "index",
                    "type": "uint256"
                }
            ],
            "name": "tokenByIndex",
            "outputs": [
                {
                    "internalType": "uint256",
                    "name": "",
                    "type": "uint256"
                }
            ],
            "stateMutability": "view",
            "type": "function"
        },
        {
            "inputs": [
                {
                    "internalType": "address",
                    "name": "owner",
                    "type": "address"
                },
                {
                    "internalType": "uint256",
                    "name": "index",
                    "type": "uint256"
                }
            ],
            "name": "tokenOfOwnerByIndex",
            "outputs": [
                {
                    "internalType": "uint256",
                    "name": "",
                    "type": "uint256"
                }
            ],
            "stateMutability": "view",
            "type": "function"
        },
        {
            "inputs": [
                {
                    "internalType": "uint256",
                    "name": "tokenId",
                    "type": "uint256"
                }
            ],
            "name": "tokenURI",
            "outputs": [
                {
                    "internalType": "string",
                    "name": "",
                    "type": "string"
                }
            ],
            "stateMutability": "view",
            "type": "function"
        },
        {
            "inputs": [],
            "name": "totalSupply",
            "outputs": [
                {
                    "internalType": "uint256",
                    "name": "",
                    "type": "uint256"
                }
            ],
            "stateMutability": "view",
            "type": "function"
        },
        {
            "inputs": [
                {
                    "internalType": "address",
                    "name": "from",
                    "type": "address"
                },
                {
                    "internalType": "address",
                    "name": "to",
                    "type": "address"
                },
                {
                    "internalType": "uint256",
                    "name": "tokenId",
                    "type": "uint256"
                }
            ],
            "name": "transferFrom",
            "outputs": [],
            "stateMutability": "nonpayable",
            "type": "function"
        },
        {
            "inputs": [
                {
                    "internalType": "address",
                    "name": "newOwner",
                    "type": "address"
                }
            ],
            "name": "transferOwnership",
            "outputs": [],
            "stateMutability": "nonpayable",
            "type": "function"
        },
        {
            "inputs": [],
            "name": "unpause",
            "outputs": [],
            "stateMutability": "nonpayable",
            "type": "function"
        }
    ],
    "bytecode": "60806040523480156200001157600080fd5b506040518060400160405280600781526020016615195cdd13919560ca1b815250604051806040016040528060048152602001631513919560e21b81525081600090816200006091906200018c565b5060016200006f82826200018c565b5050600b805460ff191690555062000087336200008d565b62000258565b600b80546001600160a01b03838116610100818102610100600160a81b031985161790945560405193909204169182907f8be0079c531659141344cd1fd0a4f28419497f9722a3daafe3b4186f6b6457e090600090a35050565b634e487b7160e01b600052604160045260246000fd5b600181811c908216806200011257607f821691505b6020821081036200013357634e487b7160e01b600052602260045260246000fd5b50919050565b601f8211156200018757600081815260208120601f850160051c81016020861015620001625750805b601f850160051c820191505b8181101562000183578281556001016200016e565b5050505b505050565b81516001600160401b03811115620001a857620001a8620000e7565b620001c081620001b98454620000fd565b8462000139565b602080601f831160018114620001f85760008415620001df5750858301515b600019600386901b1c1916600185901b17855562000183565b600085815260208120601f198616915b82811015620002295788860151825594840194600190910190840162000208565b5085821015620002485787850151600019600388901b60f8161c191681555b5050505050600190811b01905550565b6120a880620002686000396000f3fe608060405234801561001057600080fd5b50600436106101585760003560e01c80636352211e116100c3578063a22cb4651161007c578063a22cb465146102b2578063b88d4fde146102c5578063c87b56dd146102d8578063d204c45e146102eb578063e985e9c5146102fe578063f2fde38b1461033a57600080fd5b80636352211e1461025e57806370a0823114610271578063715018a6146102845780638456cb591461028c5780638da5cb5b1461029457806395d89b41146102aa57600080fd5b80632f745c59116101155780632f745c59146101ff5780633f4ba83a1461021257806342842e0e1461021a57806342966c681461022d5780634f6ccce7146102405780635c975abb1461025357600080fd5b806301ffc9a71461015d57806306fdde0314610185578063081812fc1461019a578063095ea7b3146101c557806318160ddd146101da57806323b872dd146101ec575b600080fd5b61017061016b366004611a46565b61034d565b60405190151581526020015b60405180910390f35b61018d61035e565b60405161017c9190611ab3565b6101ad6101a8366004611ac6565b6103f0565b6040516001600160a01b03909116815260200161017c565b6101d86101d3366004611afb565b610417565b005b6008545b60405190815260200161017c565b6101d86101fa366004611b25565b610531565b6101de61020d366004611afb565b610563565b6101d86105f9565b6101d8610228366004611b25565b61060b565b6101d861023b366004611ac6565b610626565b6101de61024e366004611ac6565b610657565b600b5460ff16610170565b6101ad61026c366004611ac6565b6106ea565b6101de61027f366004611b61565b61074a565b6101d86107d0565b6101d86107e2565b600b5461010090046001600160a01b03166101ad565b61018d6107f2565b6101d86102c0366004611b7c565b610801565b6101d86102d3366004611c44565b610810565b61018d6102e6366004611ac6565b610848565b6101d86102f9366004611cc0565b610853565b61017061030c366004611d22565b6001600160a01b03918216600090815260056020908152604080832093909416825291909152205460ff1690565b6101d8610348366004611b61565b61088a565b600061035882610900565b92915050565b60606000805461036d90611d55565b80601f016020809104026020016040519081016040528092919081815260200182805461039990611d55565b80156103e65780601f106103bb576101008083540402835291602001916103e6565b820191906000526020600020905b8154815290600101906020018083116103c957829003601f168201915b5050505050905090565b60006103fb82610925565b506000908152600460205260409020546001600160a01b031690565b6000610422826106ea565b9050806001600160a01b0316836001600160a01b0316036104945760405162461bcd60e51b815260206004820152602160248201527f4552433732313a20617070726f76616c20746f2063757272656e74206f776e656044820152603960f91b60648201526084015b60405180910390fd5b336001600160a01b03821614806104b057506104b0813361030c565b6105225760405162461bcd60e51b815260206004820152603d60248201527f4552433732313a20617070726f76652063616c6c6572206973206e6f7420746f60448201527f6b656e206f776e6572206f7220617070726f76656420666f7220616c6c000000606482015260840161048b565b61052c8383610984565b505050565b61053c335b826109f2565b6105585760405162461bcd60e51b815260040161048b90611d8f565b61052c838383610a71565b600061056e8361074a565b82106105d05760405162461bcd60e51b815260206004820152602b60248201527f455243373231456e756d657261626c653a206f776e657220696e646578206f7560448201526a74206f6620626f756e647360a81b606482015260840161048b565b506001600160a01b03919091166000908152600660209081526040808320938352929052205490565b610601610be2565b610609610c42565b565b61052c83838360405180602001604052806000815250610810565b61062f33610536565b61064b5760405162461bcd60e51b815260040161048b90611d8f565b61065481610c94565b50565b600061066260085490565b82106106c55760405162461bcd60e51b815260206004820152602c60248201527f455243373231456e756d657261626c653a20676c6f62616c20696e646578206f60448201526b7574206f6620626f756e647360a01b606482015260840161048b565b600882815481106106d8576106d8611ddc565b90600052602060002001549050919050565b6000818152600260205260408120546001600160a01b0316806103585760405162461bcd60e51b8152602060048201526018602482015277115490cdcc8c4e881a5b9d985b1a59081d1bdad95b88125160421b604482015260640161048b565b60006001600160a01b0382166107b45760405162461bcd60e51b815260206004820152602960248201527f4552433732313a2061646472657373207a65726f206973206e6f7420612076616044820152683634b21037bbb732b960b91b606482015260840161048b565b506001600160a01b031660009081526003602052604090205490565b6107d8610be2565b6106096000610c9d565b6107ea610be2565b610609610cf7565b60606001805461036d90611d55565b61080c338383610d34565b5050565b61081a33836109f2565b6108365760405162461bcd60e51b815260040161048b90611d8f565b61084284848484610e02565b50505050565b606061035882610e35565b61085b610be2565b6000610866600c5490565b9050610876600c80546001019055565b6108808382610f4c565b61052c8183610f66565b610892610be2565b6001600160a01b0381166108f75760405162461bcd60e51b815260206004820152602660248201527f4f776e61626c653a206e6577206f776e657220697320746865207a65726f206160448201526564647265737360d01b606482015260840161048b565b61065481610c9d565b60006001600160e01b0319821663780e9d6360e01b1480610358575061035882610ff9565b6000818152600260205260409020546001600160a01b03166106545760405162461bcd60e51b8152602060048201526018602482015277115490cdcc8c4e881a5b9d985b1a59081d1bdad95b88125160421b604482015260640161048b565b600081815260046020526040902080546001600160a01b0319166001600160a01b03841690811790915581906109b9826106ea565b6001600160a01b03167f8c5be1e5ebec7d5bd14f71427d1e84f3dd0314c0f7b2291e5b200ac8c7c3b92560405160405180910390a45050565b6000806109fe836106ea565b9050806001600160a01b0316846001600160a01b03161480610a4557506001600160a01b0380821660009081526005602090815260408083209388168352929052205460ff165b80610a695750836001600160a01b0316610a5e846103f0565b6001600160a01b0316145b949350505050565b826001600160a01b0316610a84826106ea565b6001600160a01b031614610aaa5760405162461bcd60e51b815260040161048b90611df2565b6001600160a01b038216610b0c5760405162461bcd60e51b8152602060048201526024808201527f4552433732313a207472616e7366657220746f20746865207a65726f206164646044820152637265737360e01b606482015260840161048b565b610b198383836001611049565b826001600160a01b0316610b2c826106ea565b6001600160a01b031614610b525760405162461bcd60e51b815260040161048b90611df2565b600081815260046020908152604080832080546001600160a01b03199081169091556001600160a01b0387811680865260038552838620805460001901905590871680865283862080546001019055868652600290945282852080549092168417909155905184937fddf252ad1be2c89b69c2b068fc378daa952ba7f163c4a11628f55a4df523b3ef91a4505050565b600b546001600160a01b036101009091041633146106095760405162461bcd60e51b815260206004820181905260248201527f4f776e61626c653a2063616c6c6572206973206e6f7420746865206f776e6572604482015260640161048b565b610c4a61105d565b600b805460ff191690557f5db9ee0a495bf2e6ff9c91a7834c1ba4fdd244a5e8aa4e537bd38aeae4b073aa335b6040516001600160a01b03909116815260200160405180910390a1565b610654816110a6565b600b80546001600160a01b03838116610100818102610100600160a81b031985161790945560405193909204169182907f8be0079c531659141344cd1fd0a4f28419497f9722a3daafe3b4186f6b6457e090600090a35050565b610cff6110e6565b600b805460ff191660011790557f62e78cea01bee320cd4e420270b5ea74000d11b0c9f74754ebdbfc544b05a258610c773390565b816001600160a01b0316836001600160a01b031603610d955760405162461bcd60e51b815260206004820152601960248201527f4552433732313a20617070726f766520746f2063616c6c657200000000000000604482015260640161048b565b6001600160a01b03838116600081815260056020908152604080832094871680845294825291829020805460ff191686151590811790915591519182527f17307eab39ab6107e8899845ad3d59bd9653f200f220920489ca2b5937696c31910160405180910390a3505050565b610e0d848484610a71565b610e198484848461112c565b6108425760405162461bcd60e51b815260040161048b90611e37565b6060610e4082610925565b6000828152600a602052604081208054610e5990611d55565b80601f0160208091040260200160405190810160405280929190818152602001828054610e8590611d55565b8015610ed25780601f10610ea757610100808354040283529160200191610ed2565b820191906000526020600020905b815481529060010190602001808311610eb557829003601f168201915b505050505090506000610eff604080518082019091526007815266697066733a2f2f60c81b602082015290565b90508051600003610f11575092915050565b815115610f43578082604051602001610f2b929190611e89565b60405160208183030381529060405292505050919050565b610a698461122d565b61080c8282604051806020016040528060008152506112b0565b6000828152600260205260409020546001600160a01b0316610fe15760405162461bcd60e51b815260206004820152602e60248201527f45524337323155524953746f726167653a2055524920736574206f66206e6f6e60448201526d32bc34b9ba32b73a103a37b5b2b760911b606482015260840161048b565b6000828152600a6020526040902061052c8282611f06565b60006001600160e01b031982166380ac58cd60e01b148061102a57506001600160e01b03198216635b5e139f60e01b145b8061035857506301ffc9a760e01b6001600160e01b0319831614610358565b6110516110e6565b610842848484846112e3565b600b5460ff166106095760405162461bcd60e51b815260206004820152601460248201527314185d5cd8589b194e881b9bdd081c185d5cd95960621b604482015260640161048b565b6110af81611423565b6000818152600a6020526040902080546110c890611d55565b159050610654576000818152600a60205260408120610654916119e2565b600b5460ff16156106095760405162461bcd60e51b815260206004820152601060248201526f14185d5cd8589b194e881c185d5cd95960821b604482015260640161048b565b60006001600160a01b0384163b1561122257604051630a85bd0160e11b81526001600160a01b0385169063150b7a0290611170903390899088908890600401611fc6565b6020604051808303816000875af19250505080156111ab575060408051601f3d908101601f191682019092526111a891810190612003565b60015b611208573d8080156111d9576040519150601f19603f3d011682016040523d82523d6000602084013e6111de565b606091505b5080516000036112005760405162461bcd60e51b815260040161048b90611e37565b805181602001fd5b6001600160e01b031916630a85bd0160e11b149050610a69565b506001949350505050565b606061123882610925565b600061125e604080518082019091526007815266697066733a2f2f60c81b602082015290565b9050600081511161127e57604051806020016040528060008152506112a9565b80611288846114c6565b604051602001611299929190611e89565b6040516020818303038152906040525b9392505050565b6112ba8383611559565b6112c7600084848461112c565b61052c5760405162461bcd60e51b815260040161048b90611e37565b6112ef848484846116f2565b600181111561135e5760405162461bcd60e51b815260206004820152603560248201527f455243373231456e756d657261626c653a20636f6e7365637574697665207472604482015274185b9cd9995c9cc81b9bdd081cdd5c1c1bdc9d1959605a1b606482015260840161048b565b816001600160a01b0385166113ba576113b581600880546000838152600960205260408120829055600182018355919091527ff3f7a9fe364faab93b216da50a3214154f22a0a2b415b23a84c8169e8b636ee30155565b6113dd565b836001600160a01b0316856001600160a01b0316146113dd576113dd858261177a565b6001600160a01b0384166113f9576113f481611817565b61141c565b846001600160a01b0316846001600160a01b03161461141c5761141c84826118c6565b5050505050565b600061142e826106ea565b905061143e816000846001611049565b611447826106ea565b600083815260046020908152604080832080546001600160a01b03199081169091556001600160a01b0385168085526003845282852080546000190190558785526002909352818420805490911690555192935084927fddf252ad1be2c89b69c2b068fc378daa952ba7f163c4a11628f55a4df523b3ef908390a45050565b606060006114d38361190a565b600101905060008167ffffffffffffffff8111156114f3576114f3611bb8565b6040519080825280601f01601f19166020018201604052801561151d576020820181803683370190505b5090508181016020015b600019016f181899199a1a9b1b9c1cb0b131b232b360811b600a86061a8153600a850494508461152757509392505050565b6001600160a01b0382166115af5760405162461bcd60e51b815260206004820181905260248201527f4552433732313a206d696e7420746f20746865207a65726f2061646472657373604482015260640161048b565b6000818152600260205260409020546001600160a01b0316156116145760405162461bcd60e51b815260206004820152601c60248201527f4552433732313a20746f6b656e20616c7265616479206d696e74656400000000604482015260640161048b565b611622600083836001611049565b6000818152600260205260409020546001600160a01b0316156116875760405162461bcd60e51b815260206004820152601c60248201527f4552433732313a20746f6b656e20616c7265616479206d696e74656400000000604482015260640161048b565b6001600160a01b038216600081815260036020908152604080832080546001019055848352600290915280822080546001600160a01b0319168417905551839291907fddf252ad1be2c89b69c2b068fc378daa952ba7f163c4a11628f55a4df523b3ef908290a45050565b6001811115610842576001600160a01b03841615611738576001600160a01b03841660009081526003602052604081208054839290611732908490612036565b90915550505b6001600160a01b03831615610842576001600160a01b0383166000908152600360205260408120805483929061176f908490612049565b909155505050505050565b600060016117878461074a565b6117919190612036565b6000838152600760205260409020549091508082146117e4576001600160a01b03841660009081526006602090815260408083208584528252808320548484528184208190558352600790915290208190555b5060009182526007602090815260408084208490556001600160a01b039094168352600681528383209183525290812055565b60085460009061182990600190612036565b6000838152600960205260408120546008805493945090928490811061185157611851611ddc565b90600052602060002001549050806008838154811061187257611872611ddc565b60009182526020808320909101929092558281526009909152604080822084905585825281205560088054806118aa576118aa61205c565b6001900381819060005260206000200160009055905550505050565b60006118d18361074a565b6001600160a01b039093166000908152600660209081526040808320868452825280832085905593825260079052919091209190915550565b60008072184f03e93ff9f4daa797ed6e38ed64bf6a1f0160401b83106119495772184f03e93ff9f4daa797ed6e38ed64bf6a1f0160401b830492506040015b6d04ee2d6d415b85acef81000000008310611975576d04ee2d6d415b85acef8100000000830492506020015b662386f26fc10000831061199357662386f26fc10000830492506010015b6305f5e10083106119ab576305f5e100830492506008015b61271083106119bf57612710830492506004015b606483106119d1576064830492506002015b600a83106103585760010192915050565b5080546119ee90611d55565b6000825580601f106119fe575050565b601f01602090049060005260206000209081019061065491905b80821115611a2c5760008155600101611a18565b5090565b6001600160e01b03198116811461065457600080fd5b600060208284031215611a5857600080fd5b81356112a981611a30565b60005b83811015611a7e578181015183820152602001611a66565b50506000910152565b60008151808452611a9f816020860160208601611a63565b601f01601f19169290920160200192915050565b6020815260006112a96020830184611a87565b600060208284031215611ad857600080fd5b5035919050565b80356001600160a01b0381168114611af657600080fd5b919050565b60008060408385031215611b0e57600080fd5b611b1783611adf565b946020939093013593505050565b600080600060608486031215611b3a57600080fd5b611b4384611adf565b9250611b5160208501611adf565b9150604084013590509250925092565b600060208284031215611b7357600080fd5b6112a982611adf565b60008060408385031215611b8f57600080fd5b611b9883611adf565b915060208301358015158114611bad57600080fd5b809150509250929050565b634e487b7160e01b600052604160045260246000fd5b600067ffffffffffffffff80841115611be957611be9611bb8565b604051601f8501601f19908116603f01168101908282118183101715611c1157611c11611bb8565b81604052809350858152868686011115611c2a57600080fd5b858560208301376000602087830101525050509392505050565b60008060008060808587031215611c5a57600080fd5b611c6385611adf565b9350611c7160208601611adf565b925060408501359150606085013567ffffffffffffffff811115611c9457600080fd5b8501601f81018713611ca557600080fd5b611cb487823560208401611bce565b91505092959194509250565b60008060408385031215611cd357600080fd5b611cdc83611adf565b9150602083013567ffffffffffffffff811115611cf857600080fd5b8301601f81018513611d0957600080fd5b611d1885823560208401611bce565b9150509250929050565b60008060408385031215611d3557600080fd5b611d3e83611adf565b9150611d4c60208401611adf565b90509250929050565b600181811c90821680611d6957607f821691505b602082108103611d8957634e487b7160e01b600052602260045260246000fd5b50919050565b6020808252602d908201527f4552433732313a2063616c6c6572206973206e6f7420746f6b656e206f776e6560408201526c1c881bdc88185c1c1c9bdd9959609a1b606082015260800190565b634e487b7160e01b600052603260045260246000fd5b60208082526025908201527f4552433732313a207472616e736665722066726f6d20696e636f72726563742060408201526437bbb732b960d91b606082015260800190565b60208082526032908201527f4552433732313a207472616e7366657220746f206e6f6e20455243373231526560408201527131b2b4bb32b91034b6b83632b6b2b73a32b960711b606082015260800190565b60008351611e9b818460208801611a63565b835190830190611eaf818360208801611a63565b01949350505050565b601f82111561052c57600081815260208120601f850160051c81016020861015611edf5750805b601f850160051c820191505b81811015611efe57828155600101611eeb565b505050505050565b815167ffffffffffffffff811115611f2057611f20611bb8565b611f3481611f2e8454611d55565b84611eb8565b602080601f831160018114611f695760008415611f515750858301515b600019600386901b1c1916600185901b178555611efe565b600085815260208120601f198616915b82811015611f9857888601518255948401946001909101908401611f79565b5085821015611fb65787850151600019600388901b60f8161c191681555b5050505050600190811b01905550565b6001600160a01b0385811682528416602082015260408101839052608060608201819052600090611ff990830184611a87565b9695505050505050565b60006020828403121561201557600080fd5b81516112a981611a30565b634e487b7160e01b600052601160045260246000fd5b8181038181111561035857610358612020565b8082018082111561035857610358612020565b634e487b7160e01b600052603160045260246000fdfea2646970667358221220f9a8871ee4e3205e551d5c9f5e916fb54f326e92e6ab32eb5ad9cfcce2132a0164736f6c63430008110033",
    "sourcePath": "/workspaces/soldity-contract/contracts/TestNFT.sol",
    "compiler": {
        "name": "solc",
        "version": "0.8.17+commit.8df45f5f"
    },
    "functionHashes": {
        "approve(address,uint256)": "095ea7b3",
        "balanceOf(address)": "70a08231",
        "burn(uint256)": "42966c68",
        "getApproved(uint256)": "081812fc",
        "isApprovedForAll(address,address)": "e985e9c5",
        "name()": "06fdde03",
        "owner()": "8da5cb5b",
        "ownerOf(uint256)": "6352211e",
        "pause()": "8456cb59",
        "paused()": "5c975abb",
        "renounceOwnership()": "715018a6",
        "safeMint(address,string)": "d204c45e",
        "safeTransferFrom(address,address,uint256)": "42842e0e",
        "safeTransferFrom(address,address,uint256,bytes)": "b88d4fde",
        "setApprovalForAll(address,bool)": "a22cb465",
        "supportsInterface(bytes4)": "01ffc9a7",
        "symbol()": "95d89b41",
        "tokenByIndex(uint256)": "4f6ccce7",
        "tokenOfOwnerByIndex(address,uint256)": "2f745c59",
        "tokenURI(uint256)": "c87b56dd",
        "totalSupply()": "18160ddd",
        "transferFrom(address,address,uint256)": "23b872dd",
        "transferOwnership(address)": "f2fde38b",
        "unpause()": "3f4ba83a"
    },
    "gasEstimates": {
        "creation": {
            "codeDepositCost": "1672000",
            "executionCost": "infinite",
            "totalCost": "infinite"
        },
        "external": {
            "approve(address,uint256)": "infinite",
            "balanceOf(address)": "2634",
            "burn(uint256)": "infinite",
            "getApproved(uint256)": "4792",
            "isApprovedForAll(address,address)": "infinite",
            "name()": "infinite",
            "owner()": "2453",
            "ownerOf(uint256)": "2561",
            "pause()": "infinite",
            "paused()": "2426",
            "renounceOwnership()": "infinite",
            "safeMint(address,string)": "infinite",
            "safeTransferFrom(address,address,uint256)": "infinite",
            "safeTransferFrom(address,address,uint256,bytes)": "infinite",
            "setApprovalForAll(address,bool)": "26705",
            "supportsInterface(bytes4)": "infinite",
            "symbol()": "infinite",
            "tokenByIndex(uint256)": "6826",
            "tokenOfOwnerByIndex(address,uint256)": "4953",
            "tokenURI(uint256)": "infinite",
            "totalSupply()": "2393",
            "transferFrom(address,address,uint256)": "infinite",
            "transferOwnership(address)": "28501",
            "unpause()": "infinite"
        },
        "internal": {
            "_baseURI()": "infinite",
            "_beforeTokenTransfer(address,address,uint256,uint256)": "infinite",
            "_burn(uint256)": "infinite"
        }
    }
}