{
  "contractName": "TestNFT",
  "abi": [
    {
      "inputs": [],
      "stateMutability": "nonpayable",
      "type": "constructor"
    },
    {
      "anonymous": false,
      "inputs": [
        {
          "indexed": true,
          "internalType": "address",
          "name": "owner",
          "type": "address"
        },
        {
          "indexed": true,
          "internalType": "address",
          "name": "approved",
          "type": "address"
        },
        {
          "indexed": true,
          "internalType": "uint256",
          "name": "tokenId",
          "type": "uint256"
        }
      ],
      "name": "Approval",
      "type": "event"
    },
    {
      "anonymous": false,
      "inputs": [
        {
          "indexed": true,
          "internalType": "address",
          "name": "owner",
          "type": "address"
        },
        {
          "indexed": true,
          "internalType": "address",
          "name": "operator",
          "type": "address"
        },
        {
          "indexed": false,
          "internalType": "bool",
          "name": "approved",
          "type": "bool"
        }
      ],
      "name": "ApprovalForAll",
      "type": "event"
    },
    {
      "anonymous": false,
      "inputs": [
        {
          "indexed": true,
          "internalType": "address",
          "name": "previousOwner",
          "type": "address"
        },
        {
          "indexed": true,
          "internalType": "address",
          "name": "newOwner",
          "type": "address"
        }
      ],
      "name": "OwnershipTransferred",
      "type": "event"
    },
    {
      "anonymous": false,
      "inputs": [
        {
          "indexed": false,
          "internalType": "address",
          "name": "account",
          "type": "address"
        }
      ],
      "name": "Paused",
      "type": "event"
    },
    {
      "anonymous": false,
      "inputs": [
        {
          "indexed": true,
          "internalType": "address",
          "name": "from",
          "type": "address"
        },
        {
          "indexed": true,
          "internalType": "address",
          "name": "to",
          "type": "address"
        },
        {
          "indexed": true,
          "internalType": "uint256",
          "name": "tokenId",
          "type": "uint256"
        }
      ],
      "name": "Transfer",
      "type": "event"
    },
    {
      "anonymous": false,
      "inputs": [
        {
          "indexed": false,
          "internalType": "address",
          "name": "account",
          "type": "address"
        }
      ],
      "name": "Unpaused",
      "type": "event"
    },
    {
      "inputs": [
        {
          "internalType": "address",
          "name": "to",
          "type": "address"
        },
        {
          "internalType": "uint256",
          "name": "tokenId",
          "type": "uint256"
        }
      ],
      "name": "approve",
      "outputs": [],
      "stateMutability": "nonpayable",
      "type": "function"
    },
    {
      "inputs": [
        {
          "internalType": "address",
          "name": "owner",
          "type": "address"
        }
      ],
      "name": "balanceOf",
      "outputs": [
        {
          "internalType": "uint256",
          "name": "",
          "type": "uint256"
        }
      ],
      "stateMutability": "view",
      "type": "function"
    },
    {
      "inputs": [
        {
          "internalType": "uint256",
          "name": "tokenId",
          "type": "uint256"
        }
      ],
      "name": "burn",
      "outputs": [],
      "stateMutability": "nonpayable",
      "type": "function"
    },
    {
      "inputs": [
        {
          "internalType": "uint256",
          "name": "tokenId",
          "type": "uint256"
        }
      ],
      "name": "getApproved",
      "outputs": [
        {
          "internalType": "address",
          "name": "",
          "type": "address"
        }
      ],
      "stateMutability": "view",
      "type": "function"
    },
    {
      "inputs": [
        {
          "internalType": "address",
          "name": "owner",
          "type": "address"
        },
        {
          "internalType": "address",
          "name": "operator",
          "type": "address"
        }
      ],
      "name": "isApprovedForAll",
      "outputs": [
        {
          "internalType": "bool",
          "name": "",
          "type": "bool"
        }
      ],
      "stateMutability": "view",
      "type": "function"
    },
    {
      "inputs": [],
      "name": "name",
      "outputs": [
        {
          "internalType": "string",
          "name": "",
          "type": "string"
        }
      ],
      "stateMutability": "view",
      "type": "function"
    },
    {
      "inputs": [],
      "name": "owner",
      "outputs": [
        {
          "internalType": "address",
          "name": "",
          "type": "address"
        }
      ],
      "stateMutability": "view",
      "type": "function"
    },
    {
      "inputs": [
        {
          "internalType": "uint256",
          "name": "tokenId",
          "type": "uint256"
        }
      ],
      "name": "ownerOf",
      "outputs": [
        {
          "internalType": "address",
          "name": "",
          "type": "address"
        }
      ],
      "stateMutability": "view",
      "type": "function"
    },
    {
      "inputs": [],
      "name": "paused",
      "outputs": [
        {
          "internalType": "bool",
          "name": "",
          "type": "bool"
        }
      ],
      "stateMutability": "view",
      "type": "function"
    },
    {
      "inputs": [],
      "name": "renounceOwnership",
      "outputs": [],
      "stateMutability": "nonpayable",
      "type": "function"
    },
    {
      "inputs": [
        {
          "internalType": "address",
          "name": "from",
          "type": "address"
        },
        {
          "internalType": "address",
          "name": "to",
          "type": "address"
        },
        {
          "internalType": "uint256",
          "name": "tokenId",
          "type": "uint256"
        }
      ],
      "name": "safeTransferFrom",
      "outputs": [],
      "stateMutability": "nonpayable",
      "type": "function"
    },
    {
      "inputs": [
        {
          "internalType": "address",
          "name": "from",
          "type": "address"
        },
        {
          "internalType": "address",
          "name": "to",
          "type": "address"
        },
        {
          "internalType": "uint256",
          "name": "tokenId",
          "type": "uint256"
        },
        {
          "internalType": "bytes",
          "name": "data",
          "type": "bytes"
        }
      ],
      "name": "safeTransferFrom",
      "outputs": [],
      "stateMutability": "nonpayable",
      "type": "function"
    },
    {
      "inputs": [
        {
          "internalType": "address",
          "name": "operator",
          "type": "address"
        },
        {
          "internalType": "bool",
          "name": "approved",
          "type": "bool"
        }
      ],
      "name": "setApprovalForAll",
      "outputs": [],
      "stateMutability": "nonpayable",
      "type": "function"
    },
    {
      "inputs": [],
      "name": "symbol",
      "outputs": [
        {
          "internalType": "string",
          "name": "",
          "type": "string"
        }
      ],
      "stateMutability": "view",
      "type": "function"
    },
    {
      "inputs": [
        {
          "internalType": "uint256",
          "name": "index",
          "type": "uint256"
        }
      ],
      "name": "tokenByIndex",
      "outputs": [
        {
          "internalType": "uint256",
          "name": "",
          "type": "uint256"
        }
      ],
      "stateMutability": "view",
      "type": "function"
    },
    {
      "inputs": [
        {
          "internalType": "address",
          "name": "owner",
          "type": "address"
        },
        {
          "internalType": "uint256",
          "name": "index",
          "type": "uint256"
        }
      ],
      "name": "tokenOfOwnerByIndex",
      "outputs": [
        {
          "internalType": "uint256",
          "name": "",
          "type": "uint256"
        }
      ],
      "stateMutability": "view",
      "type": "function"
    },
    {
      "inputs": [],
      "name": "totalSupply",
      "outputs": [
        {
          "internalType": "uint256",
          "name": "",
          "type": "uint256"
        }
      ],
      "stateMutability": "view",
      "type": "function"
    },
    {
      "inputs": [
        {
          "internalType": "address",
          "name": "from",
          "type": "address"
        },
        {
          "internalType": "address",
          "name": "to",
          "type": "address"
        },
        {
          "internalType": "uint256",
          "name": "tokenId",
          "type": "uint256"
        }
      ],
      "name": "transferFrom",
      "outputs": [],
      "stateMutability": "nonpayable",
      "type": "function"
    },
    {
      "inputs": [
        {
          "internalType": "address",
          "name": "newOwner",
          "type": "address"
        }
      ],
      "name": "transferOwnership",
      "outputs": [],
      "stateMutability": "nonpayable",
      "type": "function"
    },
    {
      "inputs": [],
      "name": "pause",
      "outputs": [],
      "stateMutability": "nonpayable",
      "type": "function"
    },
    {
      "inputs": [],
      "name": "unpause",
      "outputs": [],
      "stateMutability": "nonpayable",
      "type": "function"
    },
    {
      "inputs": [
        {
          "internalType": "address",
          "name": "to",
          "type": "address"
        },
        {
          "internalType": "string",
          "name": "uri",
          "type": "string"
        }
      ],
      "name": "safeMint",
      "outputs": [],
      "stateMutability": "nonpayable",
      "type": "function"
    },
    {
      "inputs": [
        {
          "internalType": "uint256",
          "name": "tokenId",
          "type": "uint256"
        }
      ],
      "name": "tokenURI",
      "outputs": [
        {
          "internalType": "string",
          "name": "",
          "type": "string"
        }
      ],
      "stateMutability": "view",
      "type": "function"
    },
    {
      "inputs": [
        {
          "internalType": "bytes4",
          "name": "interfaceId",
          "type": "bytes4"
        }
      ],
      "name": "supportsInterface",
      "outputs": [
        {
          "internalType": "bool",
          "name": "",
          "type": "bool"
        }
      ],
      "stateMutability": "view",
      "type": "function"
    }
  ],
  "bytecode": "0x60806040523480156200001157600080fd5b506040518060400160405280600781526020017f546573744e4654000000000000000000000000000000000000000000000000008152506040518060400160405280600481526020017f544e46540000000000000000000000000000000000000000000000000000000081525081600090816200008f91906200042d565b508060019081620000a191906200042d565b5050506000600b60006101000a81548160ff021916908315150217905550620000df620000d3620000e560201b60201c565b620000ed60201b60201c565b62000514565b600033905090565b6000600b60019054906101000a900473ffffffffffffffffffffffffffffffffffffffff16905081600b60016101000a81548173ffffffffffffffffffffffffffffffffffffffff021916908373ffffffffffffffffffffffffffffffffffffffff1602179055508173ffffffffffffffffffffffffffffffffffffffff168173ffffffffffffffffffffffffffffffffffffffff167f8be0079c531659141344cd1fd0a4f28419497f9722a3daafe3b4186f6b6457e060405160405180910390a35050565b600081519050919050565b7f4e487b7100000000000000000000000000000000000000000000000000000000600052604160045260246000fd5b7f4e487b7100000000000000000000000000000000000000000000000000000000600052602260045260246000fd5b600060028204905060018216806200023557607f821691505b6020821081036200024b576200024a620001ed565b5b50919050565b60008190508160005260206000209050919050565b60006020601f8301049050919050565b600082821b905092915050565b600060088302620002b57fffffffffffffffffffffffffffffffffffffffffffffffffffffffffffffffff8262000276565b620002c1868362000276565b95508019841693508086168417925050509392505050565b6000819050919050565b6000819050919050565b60006200030e620003086200030284620002d9565b620002e3565b620002d9565b9050919050565b6000819050919050565b6200032a83620002ed565b62000342620003398262000315565b84845462000283565b825550505050565b600090565b620003596200034a565b620003668184846200031f565b505050565b5b818110156200038e57620003826000826200034f565b6001810190506200036c565b5050565b601f821115620003dd57620003a78162000251565b620003b28462000266565b81016020851015620003c2578190505b620003da620003d18562000266565b8301826200036b565b50505b505050565b600082821c905092915050565b60006200040260001984600802620003e2565b1980831691505092915050565b60006200041d8383620003ef565b9150826002028217905092915050565b6200043882620001b3565b67ffffffffffffffff811115620004545762000453620001be565b5b6200046082546200021c565b6200046d82828562000392565b600060209050601f831160018114620004a5576000841562000490578287015190505b6200049c85826200040f565b8655506200050c565b601f198416620004b58662000251565b60005b82811015620004df57848901518255600182019150602085019450602081019050620004b8565b86831015620004ff5784890151620004fb601f891682620003ef565b8355505b6001600288020188555050505b505050505050565b613e3180620005246000396000f3fe608060405234801561001057600080fd5b50600436106101585760003560e01c80636352211e116100c3578063a22cb4651161007c578063a22cb465146103a1578063b88d4fde146103bd578063c87b56dd146103d9578063d204c45e14610409578063e985e9c514610425578063f2fde38b1461045557610158565b80636352211e146102f157806370a0823114610321578063715018a6146103515780638456cb591461035b5780638da5cb5b1461036557806395d89b411461038357610158565b80632f745c59116101155780632f745c59146102315780633f4ba83a1461026157806342842e0e1461026b57806342966c68146102875780634f6ccce7146102a35780635c975abb146102d357610158565b806301ffc9a71461015d57806306fdde031461018d578063081812fc146101ab578063095ea7b3146101db57806318160ddd146101f757806323b872dd14610215575b600080fd5b6101776004803603810190610172919061289f565b610471565b60405161018491906128e7565b60405180910390f35b610195610483565b6040516101a29190612992565b60405180910390f35b6101c560048036038101906101c091906129ea565b610515565b6040516101d29190612a58565b60405180910390f35b6101f560048036038101906101f09190612a9f565b61055b565b005b6101ff610672565b60405161020c9190612aee565b60405180910390f35b61022f600480360381019061022a9190612b09565b61067f565b005b61024b60048036038101906102469190612a9f565b6106df565b6040516102589190612aee565b60405180910390f35b610269610784565b005b61028560048036038101906102809190612b09565b610796565b005b6102a1600480360381019061029c91906129ea565b6107b6565b005b6102bd60048036038101906102b891906129ea565b610812565b6040516102ca9190612aee565b60405180910390f35b6102db610883565b6040516102e891906128e7565b60405180910390f35b61030b600480360381019061030691906129ea565b61089a565b6040516103189190612a58565b60405180910390f35b61033b60048036038101906103369190612b5c565b610920565b6040516103489190612aee565b60405180910390f35b6103596109d7565b005b6103636109eb565b005b61036d6109fd565b60405161037a9190612a58565b60405180910390f35b61038b610a27565b6040516103989190612992565b60405180910390f35b6103bb60048036038101906103b69190612bb5565b610ab9565b005b6103d760048036038101906103d29190612d2a565b610acf565b005b6103f360048036038101906103ee91906129ea565b610b31565b6040516104009190612992565b60405180910390f35b610423600480360381019061041e9190612e4e565b610b43565b005b61043f600480360381019061043a9190612eaa565b610b7c565b60405161044c91906128e7565b60405180910390f35b61046f600480360381019061046a9190612b5c565b610c10565b005b600061047c82610c93565b9050919050565b60606000805461049290612f19565b80601f01602080910402602001604051908101604052809291908181526020018280546104be90612f19565b801561050b5780601f106104e05761010080835404028352916020019161050b565b820191906000526020600020905b8154815290600101906020018083116104ee57829003601f168201915b5050505050905090565b600061052082610d0d565b6004600083815260200190815260200160002060009054906101000a900473ffffffffffffffffffffffffffffffffffffffff169050919050565b60006105668261089a565b90508073ffffffffffffffffffffffffffffffffffffffff168373ffffffffffffffffffffffffffffffffffffffff16036105d6576040517f08c379a00000000000000000000000000000000000000000000000000000000081526004016105cd90612fbc565b60405180910390fd5b8073ffffffffffffffffffffffffffffffffffffffff166105f5610d58565b73ffffffffffffffffffffffffffffffffffffffff16148061062457506106238161061e610d58565b610b7c565b5b610663576040517f08c379a000000000000000000000000000000000000000000000000000000000815260040161065a9061304e565b60405180910390fd5b61066d8383610d60565b505050565b6000600880549050905090565b61069061068a610d58565b82610e19565b6106cf576040517f08c379a00000000000000000000000000000000000000000000000000000000081526004016106c6906130e0565b60405180910390fd5b6106da838383610eae565b505050565b60006106ea83610920565b821061072b576040517f08c379a000000000000000000000000000000000000000000000000000000000815260040161072290613172565b60405180910390fd5b600660008473ffffffffffffffffffffffffffffffffffffffff1673ffffffffffffffffffffffffffffffffffffffff168152602001908152602001600020600083815260200190815260200160002054905092915050565b61078c6111a7565b610794611225565b565b6107b183838360405180602001604052806000815250610acf565b505050565b6107c76107c1610d58565b82610e19565b610806576040517f08c379a00000000000000000000000000000000000000000000000000000000081526004016107fd906130e0565b60405180910390fd5b61080f81611288565b50565b600061081c610672565b821061085d576040517f08c379a000000000000000000000000000000000000000000000000000000000815260040161085490613204565b60405180910390fd5b6008828154811061087157610870613224565b5b90600052602060002001549050919050565b6000600b60009054906101000a900460ff16905090565b6000806108a683611294565b9050600073ffffffffffffffffffffffffffffffffffffffff168173ffffffffffffffffffffffffffffffffffffffff1603610917576040517f08c379a000000000000000000000000000000000000000000000000000000000815260040161090e9061329f565b60405180910390fd5b80915050919050565b60008073ffffffffffffffffffffffffffffffffffffffff168273ffffffffffffffffffffffffffffffffffffffff1603610990576040517f08c379a000000000000000000000000000000000000000000000000000000000815260040161098790613331565b60405180910390fd5b600360008373ffffffffffffffffffffffffffffffffffffffff1673ffffffffffffffffffffffffffffffffffffffff168152602001908152602001600020549050919050565b6109df6111a7565b6109e960006112d1565b565b6109f36111a7565b6109fb611397565b565b6000600b60019054906101000a900473ffffffffffffffffffffffffffffffffffffffff16905090565b606060018054610a3690612f19565b80601f0160208091040260200160405190810160405280929190818152602001828054610a6290612f19565b8015610aaf5780601f10610a8457610100808354040283529160200191610aaf565b820191906000526020600020905b815481529060010190602001808311610a9257829003601f168201915b5050505050905090565b610acb610ac4610d58565b83836113fa565b5050565b610ae0610ada610d58565b83610e19565b610b1f576040517f08c379a0000000000000000000000000000000000000000000000000000000008152600401610b16906130e0565b60405180910390fd5b610b2b84848484611566565b50505050565b6060610b3c826115c2565b9050919050565b610b4b6111a7565b6000610b57600c6116d4565b9050610b63600c6116e2565b610b6d83826116f8565b610b778183611716565b505050565b6000600560008473ffffffffffffffffffffffffffffffffffffffff1673ffffffffffffffffffffffffffffffffffffffff16815260200190815260200160002060008373ffffffffffffffffffffffffffffffffffffffff1673ffffffffffffffffffffffffffffffffffffffff16815260200190815260200160002060009054906101000a900460ff16905092915050565b610c186111a7565b600073ffffffffffffffffffffffffffffffffffffffff168173ffffffffffffffffffffffffffffffffffffffff1603610c87576040517f08c379a0000000000000000000000000000000000000000000000000000000008152600401610c7e906133c3565b60405180910390fd5b610c90816112d1565b50565b60007f780e9d63000000000000000000000000000000000000000000000000000000007bffffffffffffffffffffffffffffffffffffffffffffffffffffffff1916827bffffffffffffffffffffffffffffffffffffffffffffffffffffffff19161480610d065750610d0582611783565b5b9050919050565b610d1681611865565b610d55576040517f08c379a0000000000000000000000000000000000000000000000000000000008152600401610d4c9061329f565b60405180910390fd5b50565b600033905090565b816004600083815260200190815260200160002060006101000a81548173ffffffffffffffffffffffffffffffffffffffff021916908373ffffffffffffffffffffffffffffffffffffffff160217905550808273ffffffffffffffffffffffffffffffffffffffff16610dd38361089a565b73ffffffffffffffffffffffffffffffffffffffff167f8c5be1e5ebec7d5bd14f71427d1e84f3dd0314c0f7b2291e5b200ac8c7c3b92560405160405180910390a45050565b600080610e258361089a565b90508073ffffffffffffffffffffffffffffffffffffffff168473ffffffffffffffffffffffffffffffffffffffff161480610e675750610e668185610b7c565b5b80610ea557508373ffffffffffffffffffffffffffffffffffffffff16610e8d84610515565b73ffffffffffffffffffffffffffffffffffffffff16145b91505092915050565b8273ffffffffffffffffffffffffffffffffffffffff16610ece8261089a565b73ffffffffffffffffffffffffffffffffffffffff1614610f24576040517f08c379a0000000000000000000000000000000000000000000000000000000008152600401610f1b90613455565b60405180910390fd5b600073ffffffffffffffffffffffffffffffffffffffff168273ffffffffffffffffffffffffffffffffffffffff1603610f93576040517f08c379a0000000000000000000000000000000000000000000000000000000008152600401610f8a906134e7565b60405180910390fd5b610fa083838360016118a6565b8273ffffffffffffffffffffffffffffffffffffffff16610fc08261089a565b73ffffffffffffffffffffffffffffffffffffffff1614611016576040517f08c379a000000000000000000000000000000000000000000000000000000000815260040161100d90613455565b60405180910390fd5b6004600082815260200190815260200160002060006101000a81549073ffffffffffffffffffffffffffffffffffffffff02191690556001600360008573ffffffffffffffffffffffffffffffffffffffff1673ffffffffffffffffffffffffffffffffffffffff168152602001908152602001600020600082825403925050819055506001600360008473ffffffffffffffffffffffffffffffffffffffff1673ffffffffffffffffffffffffffffffffffffffff16815260200190815260200160002060008282540192505081905550816002600083815260200190815260200160002060006101000a81548173ffffffffffffffffffffffffffffffffffffffff021916908373ffffffffffffffffffffffffffffffffffffffff160217905550808273ffffffffffffffffffffffffffffffffffffffff168473ffffffffffffffffffffffffffffffffffffffff167fddf252ad1be2c89b69c2b068fc378daa952ba7f163c4a11628f55a4df523b3ef60405160405180910390a46111a283838360016118c0565b505050565b6111af610d58565b73ffffffffffffffffffffffffffffffffffffffff166111cd6109fd565b73ffffffffffffffffffffffffffffffffffffffff1614611223576040517f08c379a000000000000000000000000000000000000000000000000000000000815260040161121a90613553565b60405180910390fd5b565b61122d6118c6565b6000600b60006101000a81548160ff0219169083151502179055507f5db9ee0a495bf2e6ff9c91a7834c1ba4fdd244a5e8aa4e537bd38aeae4b073aa611271610d58565b60405161127e9190612a58565b60405180910390a1565b6112918161190f565b50565b60006002600083815260200190815260200160002060009054906101000a900473ffffffffffffffffffffffffffffffffffffffff169050919050565b6000600b60019054906101000a900473ffffffffffffffffffffffffffffffffffffffff16905081600b60016101000a81548173ffffffffffffffffffffffffffffffffffffffff021916908373ffffffffffffffffffffffffffffffffffffffff1602179055508173ffffffffffffffffffffffffffffffffffffffff168173ffffffffffffffffffffffffffffffffffffffff167f8be0079c531659141344cd1fd0a4f28419497f9722a3daafe3b4186f6b6457e060405160405180910390a35050565b61139f611962565b6001600b60006101000a81548160ff0219169083151502179055507f62e78cea01bee320cd4e420270b5ea74000d11b0c9f74754ebdbfc544b05a2586113e3610d58565b6040516113f09190612a58565b60405180910390a1565b8173ffffffffffffffffffffffffffffffffffffffff168373ffffffffffffffffffffffffffffffffffffffff1603611468576040517f08c379a000000000000000000000000000000000000000000000000000000000815260040161145f906135bf565b60405180910390fd5b80600560008573ffffffffffffffffffffffffffffffffffffffff1673ffffffffffffffffffffffffffffffffffffffff16815260200190815260200160002060008473ffffffffffffffffffffffffffffffffffffffff1673ffffffffffffffffffffffffffffffffffffffff16815260200190815260200160002060006101000a81548160ff0219169083151502179055508173ffffffffffffffffffffffffffffffffffffffff168373ffffffffffffffffffffffffffffffffffffffff167f17307eab39ab6107e8899845ad3d59bd9653f200f220920489ca2b5937696c318360405161155991906128e7565b60405180910390a3505050565b611571848484610eae565b61157d848484846119ac565b6115bc576040517f08c379a00000000000000000000000000000000000000000000000000000000081526004016115b390613651565b60405180910390fd5b50505050565b60606115cd82610d0d565b6000600a600084815260200190815260200160002080546115ed90612f19565b80601f016020809104026020016040519081016040528092919081815260200182805461161990612f19565b80156116665780601f1061163b57610100808354040283529160200191611666565b820191906000526020600020905b81548152906001019060200180831161164957829003601f168201915b505050505090506000611677611b33565b9050600081510361168c5781925050506116cf565b6000825111156116c15780826040516020016116a99291906136ad565b604051602081830303815290604052925050506116cf565b6116ca84611b70565b925050505b919050565b600081600001549050919050565b6001816000016000828254019250508190555050565b611712828260405180602001604052806000815250611bd8565b5050565b61171f82611865565b61175e576040517f08c379a000000000000000000000000000000000000000000000000000000000815260040161175590613743565b60405180910390fd5b80600a6000848152602001908152602001600020908161177e919061390f565b505050565b60007f80ac58cd000000000000000000000000000000000000000000000000000000007bffffffffffffffffffffffffffffffffffffffffffffffffffffffff1916827bffffffffffffffffffffffffffffffffffffffffffffffffffffffff1916148061184e57507f5b5e139f000000000000000000000000000000000000000000000000000000007bffffffffffffffffffffffffffffffffffffffffffffffffffffffff1916827bffffffffffffffffffffffffffffffffffffffffffffffffffffffff1916145b8061185e575061185d82611c33565b5b9050919050565b60008073ffffffffffffffffffffffffffffffffffffffff1661188783611294565b73ffffffffffffffffffffffffffffffffffffffff1614159050919050565b6118ae611962565b6118ba84848484611c9d565b50505050565b50505050565b6118ce610883565b61190d576040517f08c379a000000000000000000000000000000000000000000000000000000000815260040161190490613a2d565b60405180910390fd5b565b61191881611dfb565b6000600a6000838152602001908152602001600020805461193890612f19565b90501461195f57600a6000828152602001908152602001600020600061195e91906127d6565b5b50565b61196a610883565b156119aa576040517f08c379a00000000000000000000000000000000000000000000000000000000081526004016119a190613a99565b60405180910390fd5b565b60006119cd8473ffffffffffffffffffffffffffffffffffffffff16611f49565b15611b26578373ffffffffffffffffffffffffffffffffffffffff1663150b7a026119f6610d58565b8786866040518563ffffffff1660e01b8152600401611a189493929190613b0e565b6020604051808303816000875af1925050508015611a5457506040513d601f19601f82011682018060405250810190611a519190613b6f565b60015b611ad6573d8060008114611a84576040519150601f19603f3d011682016040523d82523d6000602084013e611a89565b606091505b506000815103611ace576040517f08c379a0000000000000000000000000000000000000000000000000000000008152600401611ac590613651565b60405180910390fd5b805181602001fd5b63150b7a0260e01b7bffffffffffffffffffffffffffffffffffffffffffffffffffffffff1916817bffffffffffffffffffffffffffffffffffffffffffffffffffffffff191614915050611b2b565b600190505b949350505050565b60606040518060400160405280600781526020017f697066733a2f2f00000000000000000000000000000000000000000000000000815250905090565b6060611b7b82610d0d565b6000611b85611b33565b90506000815111611ba55760405180602001604052806000815250611bd0565b80611baf84611f6c565b604051602001611bc09291906136ad565b6040516020818303038152906040525b915050919050565b611be2838361203a565b611bef60008484846119ac565b611c2e576040517f08c379a0000000000000000000000000000000000000000000000000000000008152600401611c2590613651565b60405180910390fd5b505050565b60007f01ffc9a7000000000000000000000000000000000000000000000000000000007bffffffffffffffffffffffffffffffffffffffffffffffffffffffff1916827bffffffffffffffffffffffffffffffffffffffffffffffffffffffff1916149050919050565b611ca984848484612257565b6001811115611ced576040517f08c379a0000000000000000000000000000000000000000000000000000000008152600401611ce490613c0e565b60405180910390fd5b6000829050600073ffffffffffffffffffffffffffffffffffffffff168573ffffffffffffffffffffffffffffffffffffffff1603611d3457611d2f8161237d565b611d73565b8373ffffffffffffffffffffffffffffffffffffffff168573ffffffffffffffffffffffffffffffffffffffff1614611d7257611d7185826123c6565b5b5b600073ffffffffffffffffffffffffffffffffffffffff168473ffffffffffffffffffffffffffffffffffffffff1603611db557611db081612533565b611df4565b8473ffffffffffffffffffffffffffffffffffffffff168473ffffffffffffffffffffffffffffffffffffffff1614611df357611df28482612604565b5b5b5050505050565b6000611e068261089a565b9050611e168160008460016118a6565b611e1f8261089a565b90506004600083815260200190815260200160002060006101000a81549073ffffffffffffffffffffffffffffffffffffffff02191690556001600360008373ffffffffffffffffffffffffffffffffffffffff1673ffffffffffffffffffffffffffffffffffffffff168152602001908152602001600020600082825403925050819055506002600083815260200190815260200160002060006101000a81549073ffffffffffffffffffffffffffffffffffffffff021916905581600073ffffffffffffffffffffffffffffffffffffffff168273ffffffffffffffffffffffffffffffffffffffff167fddf252ad1be2c89b69c2b068fc378daa952ba7f163c4a11628f55a4df523b3ef60405160405180910390a4611f458160008460016118c0565b5050565b6000808273ffffffffffffffffffffffffffffffffffffffff163b119050919050565b606060006001611f7b84612683565b01905060008167ffffffffffffffff811115611f9a57611f99612bff565b5b6040519080825280601f01601f191660200182016040528015611fcc5781602001600182028036833780820191505090505b509050600082602001820190505b60011561202f578080600190039150507f3031323334353637383961626364656600000000000000000000000000000000600a86061a8153600a858161202357612022613c2e565b5b04945060008503611fda575b819350505050919050565b600073ffffffffffffffffffffffffffffffffffffffff168273ffffffffffffffffffffffffffffffffffffffff16036120a9576040517f08c379a00000000000000000000000000000000000000000000000000000000081526004016120a090613ca9565b60405180910390fd5b6120b281611865565b156120f2576040517f08c379a00000000000000000000000000000000000000000000000000000000081526004016120e990613d15565b60405180910390fd5b6121006000838360016118a6565b61210981611865565b15612149576040517f08c379a000000000000000000000000000000000000000000000000000000000815260040161214090613d15565b60405180910390fd5b6001600360008473ffffffffffffffffffffffffffffffffffffffff1673ffffffffffffffffffffffffffffffffffffffff16815260200190815260200160002060008282540192505081905550816002600083815260200190815260200160002060006101000a81548173ffffffffffffffffffffffffffffffffffffffff021916908373ffffffffffffffffffffffffffffffffffffffff160217905550808273ffffffffffffffffffffffffffffffffffffffff16600073ffffffffffffffffffffffffffffffffffffffff167fddf252ad1be2c89b69c2b068fc378daa952ba7f163c4a11628f55a4df523b3ef60405160405180910390a46122536000838360016118c0565b5050565b600181111561237757600073ffffffffffffffffffffffffffffffffffffffff168473ffffffffffffffffffffffffffffffffffffffff16146122eb5780600360008673ffffffffffffffffffffffffffffffffffffffff1673ffffffffffffffffffffffffffffffffffffffff16815260200190815260200160002060008282546122e39190613d64565b925050819055505b600073ffffffffffffffffffffffffffffffffffffffff168373ffffffffffffffffffffffffffffffffffffffff16146123765780600360008573ffffffffffffffffffffffffffffffffffffffff1673ffffffffffffffffffffffffffffffffffffffff168152602001908152602001600020600082825461236e9190613d98565b925050819055505b5b50505050565b6008805490506009600083815260200190815260200160002081905550600881908060018154018082558091505060019003906000526020600020016000909190919091505550565b600060016123d384610920565b6123dd9190613d64565b90506000600760008481526020019081526020016000205490508181146124c2576000600660008673ffffffffffffffffffffffffffffffffffffffff1673ffffffffffffffffffffffffffffffffffffffff168152602001908152602001600020600084815260200190815260200160002054905080600660008773ffffffffffffffffffffffffffffffffffffffff1673ffffffffffffffffffffffffffffffffffffffff168152602001908152602001600020600084815260200190815260200160002081905550816007600083815260200190815260200160002081905550505b6007600084815260200190815260200160002060009055600660008573ffffffffffffffffffffffffffffffffffffffff1673ffffffffffffffffffffffffffffffffffffffff16815260200190815260200160002060008381526020019081526020016000206000905550505050565b600060016008805490506125479190613d64565b905060006009600084815260200190815260200160002054905060006008838154811061257757612576613224565b5b90600052602060002001549050806008838154811061259957612598613224565b5b9060005260206000200181905550816009600083815260200190815260200160002081905550600960008581526020019081526020016000206000905560088054806125e8576125e7613dcc565b5b6001900381819060005260206000200160009055905550505050565b600061260f83610920565b905081600660008573ffffffffffffffffffffffffffffffffffffffff1673ffffffffffffffffffffffffffffffffffffffff168152602001908152602001600020600083815260200190815260200160002081905550806007600084815260200190815260200160002081905550505050565b600080600090507a184f03e93ff9f4daa797ed6e38ed64bf6a1f01000000000000000083106126e1577a184f03e93ff9f4daa797ed6e38ed64bf6a1f01000000000000000083816126d7576126d6613c2e565b5b0492506040810190505b6d04ee2d6d415b85acef8100000000831061271e576d04ee2d6d415b85acef8100000000838161271457612713613c2e565b5b0492506020810190505b662386f26fc10000831061274d57662386f26fc10000838161274357612742613c2e565b5b0492506010810190505b6305f5e1008310612776576305f5e100838161276c5761276b613c2e565b5b0492506008810190505b612710831061279b57612710838161279157612790613c2e565b5b0492506004810190505b606483106127be57606483816127b4576127b3613c2e565b5b0492506002810190505b600a83106127cd576001810190505b80915050919050565b5080546127e290612f19565b6000825580601f106127f45750612813565b601f0160209004906000526020600020908101906128129190612816565b5b50565b5b8082111561282f576000816000905550600101612817565b5090565b6000604051905090565b600080fd5b600080fd5b60007fffffffff0000000000000000000000000000000000000000000000000000000082169050919050565b61287c81612847565b811461288757600080fd5b50565b60008135905061289981612873565b92915050565b6000602082840312156128b5576128b461283d565b5b60006128c38482850161288a565b91505092915050565b60008115159050919050565b6128e1816128cc565b82525050565b60006020820190506128fc60008301846128d8565b92915050565b600081519050919050565b600082825260208201905092915050565b60005b8381101561293c578082015181840152602081019050612921565b60008484015250505050565b6000601f19601f8301169050919050565b600061296482612902565b61296e818561290d565b935061297e81856020860161291e565b61298781612948565b840191505092915050565b600060208201905081810360008301526129ac8184612959565b905092915050565b6000819050919050565b6129c7816129b4565b81146129d257600080fd5b50565b6000813590506129e4816129be565b92915050565b600060208284031215612a00576129ff61283d565b5b6000612a0e848285016129d5565b91505092915050565b600073ffffffffffffffffffffffffffffffffffffffff82169050919050565b6000612a4282612a17565b9050919050565b612a5281612a37565b82525050565b6000602082019050612a6d6000830184612a49565b92915050565b612a7c81612a37565b8114612a8757600080fd5b50565b600081359050612a9981612a73565b92915050565b60008060408385031215612ab657612ab561283d565b5b6000612ac485828601612a8a565b9250506020612ad5858286016129d5565b9150509250929050565b612ae8816129b4565b82525050565b6000602082019050612b036000830184612adf565b92915050565b600080600060608486031215612b2257612b2161283d565b5b6000612b3086828701612a8a565b9350506020612b4186828701612a8a565b9250506040612b52868287016129d5565b9150509250925092565b600060208284031215612b7257612b7161283d565b5b6000612b8084828501612a8a565b91505092915050565b612b92816128cc565b8114612b9d57600080fd5b50565b600081359050612baf81612b89565b92915050565b60008060408385031215612bcc57612bcb61283d565b5b6000612bda85828601612a8a565b9250506020612beb85828601612ba0565b9150509250929050565b600080fd5b600080fd5b7f4e487b7100000000000000000000000000000000000000000000000000000000600052604160045260246000fd5b612c3782612948565b810181811067ffffffffffffffff82111715612c5657612c55612bff565b5b80604052505050565b6000612c69612833565b9050612c758282612c2e565b919050565b600067ffffffffffffffff821115612c9557612c94612bff565b5b612c9e82612948565b9050602081019050919050565b82818337600083830152505050565b6000612ccd612cc884612c7a565b612c5f565b905082815260208101848484011115612ce957612ce8612bfa565b5b612cf4848285612cab565b509392505050565b600082601f830112612d1157612d10612bf5565b5b8135612d21848260208601612cba565b91505092915050565b60008060008060808587031215612d4457612d4361283d565b5b6000612d5287828801612a8a565b9450506020612d6387828801612a8a565b9350506040612d74878288016129d5565b925050606085013567ffffffffffffffff811115612d9557612d94612842565b5b612da187828801612cfc565b91505092959194509250565b600067ffffffffffffffff821115612dc857612dc7612bff565b5b612dd182612948565b9050602081019050919050565b6000612df1612dec84612dad565b612c5f565b905082815260208101848484011115612e0d57612e0c612bfa565b5b612e18848285612cab565b509392505050565b600082601f830112612e3557612e34612bf5565b5b8135612e45848260208601612dde565b91505092915050565b60008060408385031215612e6557612e6461283d565b5b6000612e7385828601612a8a565b925050602083013567ffffffffffffffff811115612e9457612e93612842565b5b612ea085828601612e20565b9150509250929050565b60008060408385031215612ec157612ec061283d565b5b6000612ecf85828601612a8a565b9250506020612ee085828601612a8a565b9150509250929050565b7f4e487b7100000000000000000000000000000000000000000000000000000000600052602260045260246000fd5b60006002820490506001821680612f3157607f821691505b602082108103612f4457612f43612eea565b5b50919050565b7f4552433732313a20617070726f76616c20746f2063757272656e74206f776e6560008201527f7200000000000000000000000000000000000000000000000000000000000000602082015250565b6000612fa660218361290d565b9150612fb182612f4a565b604082019050919050565b60006020820190508181036000830152612fd581612f99565b9050919050565b7f4552433732313a20617070726f76652063616c6c6572206973206e6f7420746f60008201527f6b656e206f776e6572206f7220617070726f76656420666f7220616c6c000000602082015250565b6000613038603d8361290d565b915061304382612fdc565b604082019050919050565b600060208201905081810360008301526130678161302b565b9050919050565b7f4552433732313a2063616c6c6572206973206e6f7420746f6b656e206f776e6560008201527f72206f7220617070726f76656400000000000000000000000000000000000000602082015250565b60006130ca602d8361290d565b91506130d58261306e565b604082019050919050565b600060208201905081810360008301526130f9816130bd565b9050919050565b7f455243373231456e756d657261626c653a206f776e657220696e646578206f7560008201527f74206f6620626f756e6473000000000000000000000000000000000000000000602082015250565b600061315c602b8361290d565b915061316782613100565b604082019050919050565b6000602082019050818103600083015261318b8161314f565b9050919050565b7f455243373231456e756d657261626c653a20676c6f62616c20696e646578206f60008201527f7574206f6620626f756e64730000000000000000000000000000000000000000602082015250565b60006131ee602c8361290d565b91506131f982613192565b604082019050919050565b6000602082019050818103600083015261321d816131e1565b9050919050565b7f4e487b7100000000000000000000000000000000000000000000000000000000600052603260045260246000fd5b7f4552433732313a20696e76616c696420746f6b656e2049440000000000000000600082015250565b600061328960188361290d565b915061329482613253565b602082019050919050565b600060208201905081810360008301526132b88161327c565b9050919050565b7f4552433732313a2061646472657373207a65726f206973206e6f74206120766160008201527f6c6964206f776e65720000000000000000000000000000000000000000000000602082015250565b600061331b60298361290d565b9150613326826132bf565b604082019050919050565b6000602082019050818103600083015261334a8161330e565b9050919050565b7f4f776e61626c653a206e6577206f776e657220697320746865207a65726f206160008201527f6464726573730000000000000000000000000000000000000000000000000000602082015250565b60006133ad60268361290d565b91506133b882613351565b604082019050919050565b600060208201905081810360008301526133dc816133a0565b9050919050565b7f4552433732313a207472616e736665722066726f6d20696e636f72726563742060008201527f6f776e6572000000000000000000000000000000000000000000000000000000602082015250565b600061343f60258361290d565b915061344a826133e3565b604082019050919050565b6000602082019050818103600083015261346e81613432565b9050919050565b7f4552433732313a207472616e7366657220746f20746865207a65726f2061646460008201527f7265737300000000000000000000000000000000000000000000000000000000602082015250565b60006134d160248361290d565b91506134dc82613475565b604082019050919050565b60006020820190508181036000830152613500816134c4565b9050919050565b7f4f776e61626c653a2063616c6c6572206973206e6f7420746865206f776e6572600082015250565b600061353d60208361290d565b915061354882613507565b602082019050919050565b6000602082019050818103600083015261356c81613530565b9050919050565b7f4552433732313a20617070726f766520746f2063616c6c657200000000000000600082015250565b60006135a960198361290d565b91506135b482613573565b602082019050919050565b600060208201905081810360008301526135d88161359c565b9050919050565b7f4552433732313a207472616e7366657220746f206e6f6e20455243373231526560008201527f63656976657220696d706c656d656e7465720000000000000000000000000000602082015250565b600061363b60328361290d565b9150613646826135df565b604082019050919050565b6000602082019050818103600083015261366a8161362e565b9050919050565b600081905092915050565b600061368782612902565b6136918185613671565b93506136a181856020860161291e565b80840191505092915050565b60006136b9828561367c565b91506136c5828461367c565b91508190509392505050565b7f45524337323155524953746f726167653a2055524920736574206f66206e6f6e60008201527f6578697374656e7420746f6b656e000000000000000000000000000000000000602082015250565b600061372d602e8361290d565b9150613738826136d1565b604082019050919050565b6000602082019050818103600083015261375c81613720565b9050919050565b60008190508160005260206000209050919050565b60006020601f8301049050919050565b600082821b905092915050565b6000600883026137c57fffffffffffffffffffffffffffffffffffffffffffffffffffffffffffffffff82613788565b6137cf8683613788565b95508019841693508086168417925050509392505050565b6000819050919050565b600061380c613807613802846129b4565b6137e7565b6129b4565b9050919050565b6000819050919050565b613826836137f1565b61383a61383282613813565b848454613795565b825550505050565b600090565b61384f613842565b61385a81848461381d565b505050565b5b8181101561387e57613873600082613847565b600181019050613860565b5050565b601f8211156138c35761389481613763565b61389d84613778565b810160208510156138ac578190505b6138c06138b885613778565b83018261385f565b50505b505050565b600082821c905092915050565b60006138e6600019846008026138c8565b1980831691505092915050565b60006138ff83836138d5565b9150826002028217905092915050565b61391882612902565b67ffffffffffffffff81111561393157613930612bff565b5b61393b8254612f19565b613946828285613882565b600060209050601f8311600181146139795760008415613967578287015190505b61397185826138f3565b8655506139d9565b601f19841661398786613763565b60005b828110156139af5784890151825560018201915060208501945060208101905061398a565b868310156139cc57848901516139c8601f8916826138d5565b8355505b6001600288020188555050505b505050505050565b7f5061757361626c653a206e6f7420706175736564000000000000000000000000600082015250565b6000613a1760148361290d565b9150613a22826139e1565b602082019050919050565b60006020820190508181036000830152613a4681613a0a565b9050919050565b7f5061757361626c653a2070617573656400000000000000000000000000000000600082015250565b6000613a8360108361290d565b9150613a8e82613a4d565b602082019050919050565b60006020820190508181036000830152613ab281613a76565b9050919050565b600081519050919050565b600082825260208201905092915050565b6000613ae082613ab9565b613aea8185613ac4565b9350613afa81856020860161291e565b613b0381612948565b840191505092915050565b6000608082019050613b236000830187612a49565b613b306020830186612a49565b613b3d6040830185612adf565b8181036060830152613b4f8184613ad5565b905095945050505050565b600081519050613b6981612873565b92915050565b600060208284031215613b8557613b8461283d565b5b6000613b9384828501613b5a565b91505092915050565b7f455243373231456e756d657261626c653a20636f6e736563757469766520747260008201527f616e7366657273206e6f7420737570706f727465640000000000000000000000602082015250565b6000613bf860358361290d565b9150613c0382613b9c565b604082019050919050565b60006020820190508181036000830152613c2781613beb565b9050919050565b7f4e487b7100000000000000000000000000000000000000000000000000000000600052601260045260246000fd5b7f4552433732313a206d696e7420746f20746865207a65726f2061646472657373600082015250565b6000613c9360208361290d565b9150613c9e82613c5d565b602082019050919050565b60006020820190508181036000830152613cc281613c86565b9050919050565b7f4552433732313a20746f6b656e20616c7265616479206d696e74656400000000600082015250565b6000613cff601c8361290d565b9150613d0a82613cc9565b602082019050919050565b60006020820190508181036000830152613d2e81613cf2565b9050919050565b7f4e487b7100000000000000000000000000000000000000000000000000000000600052601160045260246000fd5b6000613d6f826129b4565b9150613d7a836129b4565b9250828203905081811115613d9257613d91613d35565b5b92915050565b6000613da3826129b4565b9150613dae836129b4565b9250828201905080821115613dc657613dc5613d35565b5b92915050565b7f4e487b7100000000000000000000000000000000000000000000000000000000600052603160045260246000fdfea26469706673582212204713fc90082ed3514f987cea4a976d9530da93463192065163633527b35e821964736f6c63430008110033",
  "immutableReferences": {},
  "source": "// SPDX-License-Identifier: MIT\npragma solidity ^0.8.9;\n\nimport \"@openzeppelin/contracts/token/ERC721/ERC721.sol\";\nimport \"@openzeppelin/contracts/token/ERC721/extensions/ERC721Enumerable.sol\";\nimport \"@openzeppelin/contracts/token/ERC721/extensions/ERC721URIStorage.sol\";\nimport \"@openzeppelin/contracts/security/Pausable.sol\";\nimport \"@openzeppelin/contracts/access/Ownable.sol\";\nimport \"@openzeppelin/contracts/token/ERC721/extensions/ERC721Burnable.sol\";\nimport \"@openzeppelin/contracts/utils/Counters.sol\";\n\ncontract TestNFT is ERC721, ERC721Enumerable, ERC721URIStorage, Pausable, Ownable, ERC721Burnable {\n    using Counters for Counters.Counter;\n\n    Counters.Counter private _tokenIdCounter;\n\n    constructor() ERC721(\"TestNFT\", \"TNFT\") {}\n\n    function _baseURI() internal pure override returns (string memory) {\n        return \"ipfs://\";\n    }\n\n    function pause() public onlyOwner {\n        _pause();\n    }\n\n    function unpause() public onlyOwner {\n        _unpause();\n    }\n\n    function safeMint(address to, string memory uri) public onlyOwner {\n        uint256 tokenId = _tokenIdCounter.current();\n        _tokenIdCounter.increment();\n        _safeMint(to, tokenId);\n        _setTokenURI(tokenId, uri);\n    }\n\n    function _beforeTokenTransfer(address from, address to, uint256 tokenId, uint256 batchSize)\n        internal\n        whenNotPaused\n        override(ERC721, ERC721Enumerable)\n    {\n        super._beforeTokenTransfer(from, to, tokenId, batchSize);\n    }\n\n    // The following functions are overrides required by Solidity.\n\n    function _burn(uint256 tokenId) internal override(ERC721, ERC721URIStorage) {\n        super._burn(tokenId);\n    }\n\n    function tokenURI(uint256 tokenId)\n        public\n        view\n        override(ERC721, ERC721URIStorage)\n        returns (string memory)\n    {\n        return super.tokenURI(tokenId);\n    }\n\n    function supportsInterface(bytes4 interfaceId)\n        public\n        view\n        override(ERC721, ERC721Enumerable)\n        returns (bool)\n    {\n        return super.supportsInterface(interfaceId);\n    }\n}\n",
  "sourcePath": "/workspaces/soldity-contract/contracts/TestNFT.sol",
  "compiler": {
    "name": "solc",
    "version": "0.8.17+commit.8df45f5f.Emscripten.clang"
  },
  "schemaVersion": "3.4.11",
  "updatedAt": "2023-01-01T15:16:55.156Z",
  "devdoc": {
    "kind": "dev",
    "methods": {
      "approve(address,uint256)": {
        "details": "See {IERC721-approve}."
      },
      "balanceOf(address)": {
        "details": "See {IERC721-balanceOf}."
      },
      "burn(uint256)": {
        "details": "Burns `tokenId`. See {ERC721-_burn}. Requirements: - The caller must own `tokenId` or be an approved operator."
      },
      "getApproved(uint256)": {
        "details": "See {IERC721-getApproved}."
      },
      "isApprovedForAll(address,address)": {
        "details": "See {IERC721-isApprovedForAll}."
      },
      "name()": {
        "details": "See {IERC721Metadata-name}."
      },
      "owner()": {
        "details": "Returns the address of the current owner."
      },
      "ownerOf(uint256)": {
        "details": "See {IERC721-ownerOf}."
      },
      "paused()": {
        "details": "Returns true if the contract is paused, and false otherwise."
      },
      "renounceOwnership()": {
        "details": "Leaves the contract without owner. It will not be possible to call `onlyOwner` functions anymore. Can only be called by the current owner. NOTE: Renouncing ownership will leave the contract without an owner, thereby removing any functionality that is only available to the owner."
      },
      "safeTransferFrom(address,address,uint256)": {
        "details": "See {IERC721-safeTransferFrom}."
      },
      "safeTransferFrom(address,address,uint256,bytes)": {
        "details": "See {IERC721-safeTransferFrom}."
      },
      "setApprovalForAll(address,bool)": {
        "details": "See {IERC721-setApprovalForAll}."
      },
      "symbol()": {
        "details": "See {IERC721Metadata-symbol}."
      },
      "tokenByIndex(uint256)": {
        "details": "See {IERC721Enumerable-tokenByIndex}."
      },
      "tokenOfOwnerByIndex(address,uint256)": {
        "details": "See {IERC721Enumerable-tokenOfOwnerByIndex}."
      },
      "totalSupply()": {
        "details": "See {IERC721Enumerable-totalSupply}."
      },
      "transferFrom(address,address,uint256)": {
        "details": "See {IERC721-transferFrom}."
      },
      "transferOwnership(address)": {
        "details": "Transfers ownership of the contract to a new account (`newOwner`). Can only be called by the current owner."
      }
    },
    "version": 1
  },
  "userdoc": {
    "kind": "user",
    "methods": {},
    "version": 1
  }
}